{
  "contractName": "Payment",
  "abi": [
    {
      "inputs": [
        {
          "internalType": "uint256",
          "name": "",
          "type": "uint256"
        },
        {
          "internalType": "uint256",
          "name": "",
          "type": "uint256"
        }
      ],
      "name": "network",
      "outputs": [
        {
          "internalType": "uint256",
          "name": "",
          "type": "uint256"
        }
      ],
      "stateMutability": "view",
      "type": "function",
      "constant": true
    },
    {
      "inputs": [
        {
          "internalType": "uint256",
          "name": "",
          "type": "uint256"
        }
      ],
      "name": "users",
      "outputs": [
        {
          "internalType": "string",
          "name": "",
          "type": "string"
        }
      ],
      "stateMutability": "view",
      "type": "function",
      "constant": true
    },
    {
      "inputs": [
        {
          "internalType": "uint256",
          "name": "user_id",
          "type": "uint256"
        },
        {
          "internalType": "string",
          "name": "user_name",
          "type": "string"
        }
      ],
      "name": "registerUser",
      "outputs": [],
      "stateMutability": "nonpayable",
      "type": "function"
    },
    {
      "inputs": [
        {
          "internalType": "uint256",
          "name": "user_id1",
          "type": "uint256"
        },
        {
          "internalType": "uint256",
          "name": "user_id2",
          "type": "uint256"
        },
        {
          "internalType": "uint256",
          "name": "amount1",
          "type": "uint256"
        },
        {
          "internalType": "uint256",
          "name": "amount2",
          "type": "uint256"
        }
      ],
      "name": "createAcc",
      "outputs": [],
      "stateMutability": "nonpayable",
      "type": "function"
    },
    {
      "inputs": [
        {
          "internalType": "uint256",
          "name": "user_id1",
          "type": "uint256"
        },
        {
          "internalType": "uint256",
          "name": "user_id2",
          "type": "uint256"
        },
        {
          "internalType": "uint256",
          "name": "amount",
          "type": "uint256"
        }
      ],
      "name": "sendAmount",
      "outputs": [],
      "stateMutability": "nonpayable",
      "type": "function"
    },
    {
      "inputs": [
        {
          "internalType": "uint256",
          "name": "user_id1",
          "type": "uint256"
        },
        {
          "internalType": "uint256",
          "name": "user_id2",
          "type": "uint256"
        }
      ],
      "name": "closeAccount",
      "outputs": [],
      "stateMutability": "nonpayable",
      "type": "function"
    }
  ],
  "bytecode": "0x608060405234801561001057600080fd5b50610bbd806100206000396000f3fe608060405234801561001057600080fd5b50600436106100625760003560e01c80631c57333e14610067578063365b98b2146100835780633f3078df146100b35780635ce54981146100cf578063bd45d6eb146100eb578063db3a6b8714610107575b600080fd5b610081600480360381019061007c91906107a0565b610137565b005b61009d600480360381019061009891906107fc565b610162565b6040516100aa91906108b1565b60405180910390f35b6100cd60048036038101906100c891906108d3565b610202565b005b6100e960048036038101906100e49190610926565b610484565b005b6101056004803603810190610100919061098d565b6104f0565b005b610121600480360381019061011c919061098d565b6104f4565b60405161012e91906109dc565b60405180910390f35b80600080848152602001908152602001600020908051906020019061015d929190610525565b505050565b6000602052806000526040600020600091509050805461018190610a26565b80601f01602080910402602001604051908101604052809291908181526020018280546101ad90610a26565b80156101fa5780601f106101cf576101008083540402835291602001916101fa565b820191906000526020600020905b8154815290600101906020018083116101dd57829003601f168201915b505050505081565b61020a6105ab565b60008060006001905061021b6105cf565b6102236105cf565b888160016101f5811061023957610238610a57565b5b6020020181815250506000828a6101f5811061025857610257610a57565b5b6020020181815250505b8284146103a2576001846102769190610ab5565b9350600081856101f5811061028e5761028d610a57565b5b60200201519050600187826101f581106102ab576102aa610a57565b5b6020020190151590811515815250506000600190505b6101f4811161039b5787816101f581106102de576102dd610a57565b5b6020020151806102ed57508181145b806103255750886001836101f5811061030957610308610a57565b5b6101f50201826101f5811061032157610320610a57565b5b0154105b610388576001856103369190610ab5565b94508083866101f5811061034d5761034c610a57565b5b6020020181815250508184826101f5811061036b5761036a610a57565b5b602002018181525050898103610387578495506001965061039b565b5b808061039390610b0b565b9150506102c1565b5050610262565b60008890505b600083826101f581106103be576103bd610a57565b5b60200201511461047857600083826101f581106103de576103dd610a57565b5b60200201519050886001836101f581106103fb576103fa610a57565b5b6101f50201826101f5811061041357610412610a57565b5b0160008282546104239190610ab5565b92505081905550886001826101f581106104405761043f610a57565b5b6101f50201836101f5811061045857610457610a57565b5b0160008282546104689190610b53565b92505081905550809150506103a8565b50505050505050505050565b816001856101f5811061049a57610499610a57565b5b6101f50201846101f581106104b2576104b1610a57565b5b0181905550806001846101f581106104cd576104cc610a57565b5b6101f50201856101f581106104e5576104e4610a57565b5b018190555050505050565b5050565b6001826101f5811061050557600080fd5b6101f50201816101f5811061051957600080fd5b01600091509150505481565b82805461053190610a26565b90600052602060002090601f016020900481019282610553576000855561059a565b82601f1061056c57805160ff191683800117855561059a565b8280016001018555821561059a579182015b8281111561059957825182559160200191906001019061057e565b5b5090506105a791906105f3565b5090565b60405180613ea001604052806101f590602082028036833780820191505090505090565b60405180613ea001604052806101f590602082028036833780820191505090505090565b5b8082111561060c5760008160009055506001016105f4565b5090565b6000604051905090565b600080fd5b600080fd5b6000819050919050565b61063781610624565b811461064257600080fd5b50565b6000813590506106548161062e565b92915050565b600080fd5b600080fd5b6000601f19601f8301169050919050565b7f4e487b7100000000000000000000000000000000000000000000000000000000600052604160045260246000fd5b6106ad82610664565b810181811067ffffffffffffffff821117156106cc576106cb610675565b5b80604052505050565b60006106df610610565b90506106eb82826106a4565b919050565b600067ffffffffffffffff82111561070b5761070a610675565b5b61071482610664565b9050602081019050919050565b82818337600083830152505050565b600061074361073e846106f0565b6106d5565b90508281526020810184848401111561075f5761075e61065f565b5b61076a848285610721565b509392505050565b600082601f8301126107875761078661065a565b5b8135610797848260208601610730565b91505092915050565b600080604083850312156107b7576107b661061a565b5b60006107c585828601610645565b925050602083013567ffffffffffffffff8111156107e6576107e561061f565b5b6107f285828601610772565b9150509250929050565b6000602082840312156108125761081161061a565b5b600061082084828501610645565b91505092915050565b600081519050919050565b600082825260208201905092915050565b60005b83811015610863578082015181840152602081019050610848565b83811115610872576000848401525b50505050565b600061088382610829565b61088d8185610834565b935061089d818560208601610845565b6108a681610664565b840191505092915050565b600060208201905081810360008301526108cb8184610878565b905092915050565b6000806000606084860312156108ec576108eb61061a565b5b60006108fa86828701610645565b935050602061090b86828701610645565b925050604061091c86828701610645565b9150509250925092565b600080600080608085870312156109405761093f61061a565b5b600061094e87828801610645565b945050602061095f87828801610645565b935050604061097087828801610645565b925050606061098187828801610645565b91505092959194509250565b600080604083850312156109a4576109a361061a565b5b60006109b285828601610645565b92505060206109c385828601610645565b9150509250929050565b6109d681610624565b82525050565b60006020820190506109f160008301846109cd565b92915050565b7f4e487b7100000000000000000000000000000000000000000000000000000000600052602260045260246000fd5b60006002820490506001821680610a3e57607f821691505b602082108103610a5157610a506109f7565b5b50919050565b7f4e487b7100000000000000000000000000000000000000000000000000000000600052603260045260246000fd5b7f4e487b7100000000000000000000000000000000000000000000000000000000600052601160045260246000fd5b6000610ac082610624565b9150610acb83610624565b9250827fffffffffffffffffffffffffffffffffffffffffffffffffffffffffffffffff03821115610b0057610aff610a86565b5b828201905092915050565b6000610b1682610624565b91507fffffffffffffffffffffffffffffffffffffffffffffffffffffffffffffffff8203610b4857610b47610a86565b5b600182019050919050565b6000610b5e82610624565b9150610b6983610624565b925082821015610b7c57610b7b610a86565b5b82820390509291505056fea264697066735822122041970592bcb98ed71250e0d4cd349e5852f6454c662b6cd5bffbf17cd9eb4ba164736f6c634300080e0033",
  "immutableReferences": {},
  "source": "// SPDX-License-Identifier: MIT\npragma solidity >=0.4.22 <0.9.0;\n\ncontract Payment {\n\t// mapping( uint => uint[2][] ) public network;\n\tmapping( uint => string ) public users;\n\t\n\tuint[501][501] public network;\n    function registerUser(uint user_id, string memory user_name) public {\n\t\tusers[user_id] = user_name;\t\n    }\n\n\tfunction createAcc(uint user_id1, uint user_id2, uint amount1, uint amount2) public {\n\t\t// network[user_id1].push([user_id2,0]);\n\t\t// network[user_id2].push([user_id1,0]);\n\t\tnetwork[user_id1][user_id2] = amount1;\n\t\tnetwork[user_id2][user_id1] = amount2;\n\t}\n\n\tfunction sendAmount(uint user_id1, uint user_id2, uint amount) public {\n\t\tbool[501] memory visited;\n\t\tbool found = false;\n\t\tuint front = 0 ;\n\t\tuint rear  = 1 ;\n\t\tuint [501] memory parent;\n\t\tuint [501] memory qq;\n\t\tqq[1] = user_id1;\n\t\tparent[user_id1] = 0;\n\t\twhile(front!=rear)\n\t\t{\n\t\t\tfront+=1;\n\t\t\tuint node = qq[front];\n\t\t\tvisited[node]= true;\n\t\t\tfor(uint i=1 ; i<= 500 ; i++)\n\t\t\t{\n\t\t\t\tif(visited[i] || i==node || network[node][i]<amount)\n\t\t\t\t\tcontinue;\n\t\t\t\trear+=1;\n\t\t\t\tqq[rear]= i;\n\t\t\t\tparent[i]=node;\n\t\t\t\tif(i==user_id2)\n\t\t\t\t{\n\t\t\t\t\tfront=rear;\n\t\t\t\t\tfound = true;\n\t\t\t\t\tbreak;\n\t\t\t\t}\n\t\t\t}\n\t\t}\n\n\t\tuint node2 = user_id2;\n\n\t\twhile(parent[node2]!=0)\n\t\t{\n\t\t\tuint pred = parent[node2];\n\t\t\tnetwork[node2][pred]+=amount;\n\t\t\tnetwork[pred][node2]-=amount;\n\t\t\tnode2 = pred;\n\t\t} \n\n\t}\n\n\tfunction closeAccount(uint user_id1, uint user_id2) public {\n\n\t}\n}\n",
  "sourcePath": "C:\\Users\\kirti\\OneDrive\\Desktop\\HW3\\contracts\\Payment.sol",
  "compiler": {
    "name": "solc",
    "version": "0.8.14+commit.80d49f37.Emscripten.clang"
  },
  "schemaVersion": "3.4.7",
  "updatedAt": "2023-04-07T21:26:40.913Z",
  "networkType": "ethereum",
  "devdoc": {
    "kind": "dev",
    "methods": {},
    "version": 1
  },
  "userdoc": {
    "kind": "user",
    "methods": {},
    "version": 1
  }
}