{
  "contractName": "Payment",
  "abi": [
    {
      "anonymous": false,
      "inputs": [
        {
          "indexed": false,
          "internalType": "bool",
          "name": "found",
          "type": "bool"
        }
      ],
      "name": "myEvent",
      "type": "event"
    },
    {
      "inputs": [
        {
          "internalType": "uint256",
          "name": "",
          "type": "uint256"
        },
        {
          "internalType": "uint256",
          "name": "",
          "type": "uint256"
        }
      ],
      "name": "network",
      "outputs": [
        {
          "internalType": "uint256",
          "name": "",
          "type": "uint256"
        }
      ],
      "stateMutability": "view",
      "type": "function"
    },
    {
      "inputs": [
        {
          "internalType": "uint256",
          "name": "",
          "type": "uint256"
        }
      ],
      "name": "users",
      "outputs": [
        {
          "internalType": "string",
          "name": "",
          "type": "string"
        }
      ],
      "stateMutability": "view",
      "type": "function"
    },
    {
      "inputs": [
        {
          "internalType": "uint256",
          "name": "user_id",
          "type": "uint256"
        },
        {
          "internalType": "string",
          "name": "user_name",
          "type": "string"
        }
      ],
      "name": "registerUser",
      "outputs": [],
      "stateMutability": "nonpayable",
      "type": "function"
    },
    {
      "inputs": [
        {
          "internalType": "uint256",
          "name": "user_id1",
          "type": "uint256"
        },
        {
          "internalType": "uint256",
          "name": "user_id2",
          "type": "uint256"
        },
        {
          "internalType": "uint256",
          "name": "amount",
          "type": "uint256"
        }
      ],
      "name": "createAcc",
      "outputs": [],
      "stateMutability": "nonpayable",
      "type": "function"
    },
    {
      "inputs": [
        {
          "internalType": "uint256",
          "name": "user_id1",
          "type": "uint256"
        },
        {
          "internalType": "uint256",
          "name": "user_id2",
          "type": "uint256"
        }
      ],
      "name": "sendAmount",
      "outputs": [],
      "stateMutability": "nonpayable",
      "type": "function"
    },
    {
      "inputs": [
        {
          "internalType": "uint256",
          "name": "user_id1",
          "type": "uint256"
        },
        {
          "internalType": "uint256",
          "name": "user_id2",
          "type": "uint256"
        }
      ],
      "name": "closeAccount",
      "outputs": [],
      "stateMutability": "nonpayable",
      "type": "function"
    }
  ],
  "bytecode": "0x608060405234801561001057600080fd5b50610ca1806100206000396000f3fe608060405234801561001057600080fd5b50600436106100625760003560e01c80631c57333e14610067578063365b98b2146100835780635db9506e146100b3578063b5483481146100cf578063bd45d6eb146100eb578063db3a6b8714610107575b600080fd5b610081600480360381019061007c9190610855565b610137565b005b61009d600480360381019061009891906108b1565b610162565b6040516100aa9190610966565b60405180910390f35b6100cd60048036038101906100c89190610988565b610202565b005b6100e960048036038101906100e491906109c8565b6104ba565b005b61010560048036038101906101009190610988565b61053d565b005b610121600480360381019061011c9190610988565b6105a9565b60405161012e9190610a2a565b60405180910390f35b80600080848152602001908152602001600020908051906020019061015d9291906105da565b505050565b6000602052806000526040600020600091509050805461018190610a74565b80601f01602080910402602001604051908101604052809291908181526020018280546101ad90610a74565b80156101fa5780601f106101cf576101008083540402835291602001916101fa565b820191906000526020600020905b8154815290600101906020018083116101dd57829003601f168201915b505050505081565b61020a610660565b60008060006001905061021b610684565b610223610684565b878160016101f5811061023957610238610aa5565b5b602002018181525050600082896101f5811061025857610257610aa5565b5b6020020181815250505b8284146103a2576001846102769190610b03565b9350600081856101f5811061028e5761028d610aa5565b5b60200201519050600187826101f581106102ab576102aa610aa5565b5b6020020190151590811515815250506000600190505b6101f4811161039b5787816101f581106102de576102dd610aa5565b5b6020020151806102ed57508181145b806103255750600180836101f5811061030957610308610aa5565b5b6101f50201826101f5811061032157610320610aa5565b5b0154105b610388576001856103369190610b03565b94508083866101f5811061034d5761034c610aa5565b5b6020020181815250508184826101f5811061036b5761036a610aa5565b5b602002018181525050888103610387578495506001965061039b565b5b808061039390610b59565b9150506102c1565b5050610262565b60008790505b600083826101f581106103be576103bd610aa5565b5b60200201511461047857600083826101f581106103de576103dd610aa5565b5b60200201519050600180836101f581106103fb576103fa610aa5565b5b6101f50201826101f5811061041357610412610aa5565b5b0160008282546104239190610b03565b92505081905550600180826101f581106104405761043f610aa5565b5b6101f50201836101f5811061045857610457610aa5565b5b0160008282546104689190610ba1565b92505081905550809150506103a8565b7fe9c3ec5590529f5a735dbb14777df46f815c1df333f5dba21f0f43de89c652f9866040516104a79190610bf0565b60405180910390a1505050505050505050565b6002816104c79190610c3a565b6001846101f581106104dc576104db610aa5565b5b6101f50201836101f581106104f4576104f3610aa5565b5b01819055506002816105069190610c3a565b6001836101f5811061051b5761051a610aa5565b5b6101f50201846101f5811061053357610532610aa5565b5b0181905550505050565b60006001836101f5811061055457610553610aa5565b5b6101f50201826101f5811061056c5761056b610aa5565b5b018190555060006001826101f5811061058857610587610aa5565b5b6101f50201836101f581106105a05761059f610aa5565b5b01819055505050565b6001826101f581106105ba57600080fd5b6101f50201816101f581106105ce57600080fd5b01600091509150505481565b8280546105e690610a74565b90600052602060002090601f016020900481019282610608576000855561064f565b82601f1061062157805160ff191683800117855561064f565b8280016001018555821561064f579182015b8281111561064e578251825591602001919060010190610633565b5b50905061065c91906106a8565b5090565b60405180613ea001604052806101f590602082028036833780820191505090505090565b60405180613ea001604052806101f590602082028036833780820191505090505090565b5b808211156106c15760008160009055506001016106a9565b5090565b6000604051905090565b600080fd5b600080fd5b6000819050919050565b6106ec816106d9565b81146106f757600080fd5b50565b600081359050610709816106e3565b92915050565b600080fd5b600080fd5b6000601f19601f8301169050919050565b7f4e487b7100000000000000000000000000000000000000000000000000000000600052604160045260246000fd5b61076282610719565b810181811067ffffffffffffffff821117156107815761078061072a565b5b80604052505050565b60006107946106c5565b90506107a08282610759565b919050565b600067ffffffffffffffff8211156107c0576107bf61072a565b5b6107c982610719565b9050602081019050919050565b82818337600083830152505050565b60006107f86107f3846107a5565b61078a565b90508281526020810184848401111561081457610813610714565b5b61081f8482856107d6565b509392505050565b600082601f83011261083c5761083b61070f565b5b813561084c8482602086016107e5565b91505092915050565b6000806040838503121561086c5761086b6106cf565b5b600061087a858286016106fa565b925050602083013567ffffffffffffffff81111561089b5761089a6106d4565b5b6108a785828601610827565b9150509250929050565b6000602082840312156108c7576108c66106cf565b5b60006108d5848285016106fa565b91505092915050565b600081519050919050565b600082825260208201905092915050565b60005b838110156109185780820151818401526020810190506108fd565b83811115610927576000848401525b50505050565b6000610938826108de565b61094281856108e9565b93506109528185602086016108fa565b61095b81610719565b840191505092915050565b60006020820190508181036000830152610980818461092d565b905092915050565b6000806040838503121561099f5761099e6106cf565b5b60006109ad858286016106fa565b92505060206109be858286016106fa565b9150509250929050565b6000806000606084860312156109e1576109e06106cf565b5b60006109ef868287016106fa565b9350506020610a00868287016106fa565b9250506040610a11868287016106fa565b9150509250925092565b610a24816106d9565b82525050565b6000602082019050610a3f6000830184610a1b565b92915050565b7f4e487b7100000000000000000000000000000000000000000000000000000000600052602260045260246000fd5b60006002820490506001821680610a8c57607f821691505b602082108103610a9f57610a9e610a45565b5b50919050565b7f4e487b7100000000000000000000000000000000000000000000000000000000600052603260045260246000fd5b7f4e487b7100000000000000000000000000000000000000000000000000000000600052601160045260246000fd5b6000610b0e826106d9565b9150610b19836106d9565b9250827fffffffffffffffffffffffffffffffffffffffffffffffffffffffffffffffff03821115610b4e57610b4d610ad4565b5b828201905092915050565b6000610b64826106d9565b91507fffffffffffffffffffffffffffffffffffffffffffffffffffffffffffffffff8203610b9657610b95610ad4565b5b600182019050919050565b6000610bac826106d9565b9150610bb7836106d9565b925082821015610bca57610bc9610ad4565b5b828203905092915050565b60008115159050919050565b610bea81610bd5565b82525050565b6000602082019050610c056000830184610be1565b92915050565b7f4e487b7100000000000000000000000000000000000000000000000000000000600052601260045260246000fd5b6000610c45826106d9565b9150610c50836106d9565b925082610c6057610c5f610c0b565b5b82820490509291505056fea26469706673582212206064752b04f8d7de2f01af0da717604183a94cc8fcd6812737a5d4771c3f0bb464736f6c634300080e0033",
  "immutableReferences": {},
  "source": "// SPDX-License-Identifier: MIT\r\npragma solidity >=0.4.22 <0.9.0;\r\n\r\ncontract Payment {\r\n\t// mapping( uint => uint[2][] ) public network;\r\n\tmapping( uint => string ) public users;\r\n\tevent myEvent(bool found);\r\n\tuint[501][501] public network;\r\n    function registerUser(uint user_id, string memory user_name) public {\r\n\t\tusers[user_id] = user_name;\t\r\n    }\r\n\r\n\tfunction createAcc(uint user_id1, uint user_id2, uint amount) public {\r\n\t\t// network[user_id1].push([user_id2,0]);\r\n\t\t// network[user_id2].push([user_id1,0]);\r\n\t\tnetwork[user_id1][user_id2] = amount/2;\r\n\t\tnetwork[user_id2][user_id1] = amount/2;\r\n\t}\r\n\r\n\tfunction sendAmount(uint user_id1, uint user_id2) public {\r\n\t\tbool[501] memory visited;\r\n\t\tbool found = false;\r\n\t\tuint front = 0 ;\r\n\t\tuint rear  = 1 ;\r\n\t\tuint [501] memory parent;\r\n\t\tuint [501] memory qq;\r\n\t\tqq[1] = user_id1;\r\n\t\tparent[user_id1] = 0;\r\n\t\twhile(front!=rear)\r\n\t\t{\r\n\t\t\tfront+=1;\r\n\t\t\tuint node = qq[front];\r\n\t\t\tvisited[node]= true;\r\n\t\t\tfor(uint i=1 ; i<= 500 ; i++)\r\n\t\t\t{\r\n\t\t\t\tif(visited[i] || i==node || network[node][i]<1)\r\n\t\t\t\t\tcontinue;\r\n\t\t\t\trear+=1;\r\n\t\t\t\tqq[rear]= i;\r\n\t\t\t\tparent[i]=node;\r\n\t\t\t\tif(i==user_id2)\r\n\t\t\t\t{\r\n\t\t\t\t\tfront=rear;\r\n\t\t\t\t\tfound = true;\r\n\t\t\t\t\tbreak;\r\n\t\t\t\t}\r\n\t\t\t}\r\n\t\t}\r\n\r\n\t\tuint node2 = user_id2;\r\n\r\n\t\twhile(parent[node2]!=0)\r\n\t\t{\r\n\t\t\tuint pred = parent[node2];\r\n\t\t\tnetwork[node2][pred]+=1;\r\n\t\t\tnetwork[pred][node2]-=1;\r\n\t\t\tnode2 = pred;\r\n\t\t} \r\n\t\temit myEvent(found);\r\n\t}\r\n\r\n\tfunction closeAccount(uint user_id1, uint user_id2) public {\r\n\t\tnetwork[user_id1][user_id2] = 0;\r\n\t\tnetwork[user_id2][user_id1] = 0;\r\n\t}\r\n}\r\n",
  "sourcePath": "C:\\Users\\kirti\\OneDrive\\Desktop\\HW3\\contracts\\Payment.sol",
  "compiler": {
    "name": "solc",
    "version": "0.8.14+commit.80d49f37.Emscripten.clang"
  },
  "schemaVersion": "3.4.7",
  "updatedAt": "2023-04-09T09:14:57.618Z",
  "devdoc": {
    "kind": "dev",
    "methods": {},
    "version": 1
  },
  "userdoc": {
    "kind": "user",
    "methods": {},
    "version": 1
  }
}